{
  "contractName": "DappTokenSale",
  "abi": [
    {
      "inputs": [
        {
          "internalType": "contract DappToken",
          "name": "_tokenContract",
          "type": "address"
        },
        {
          "internalType": "uint256",
          "name": "_tokenPrice",
          "type": "uint256"
        }
      ],
      "stateMutability": "nonpayable",
      "type": "constructor"
    },
    {
      "anonymous": false,
      "inputs": [
        {
          "indexed": false,
          "internalType": "address",
          "name": "_buyer",
          "type": "address"
        },
        {
          "indexed": false,
          "internalType": "uint256",
          "name": "_amount",
          "type": "uint256"
        }
      ],
      "name": "Sell",
      "type": "event"
    },
    {
      "inputs": [],
      "name": "admin",
      "outputs": [
        {
          "internalType": "address",
          "name": "",
          "type": "address"
        }
      ],
      "stateMutability": "view",
      "type": "function",
      "constant": true
    },
    {
      "inputs": [],
      "name": "testi",
      "outputs": [
        {
          "internalType": "uint256",
          "name": "",
          "type": "uint256"
        }
      ],
      "stateMutability": "view",
      "type": "function",
      "constant": true
    },
    {
      "inputs": [],
      "name": "tokenContract",
      "outputs": [
        {
          "internalType": "contract DappToken",
          "name": "",
          "type": "address"
        }
      ],
      "stateMutability": "view",
      "type": "function",
      "constant": true
    },
    {
      "inputs": [],
      "name": "tokenPrice",
      "outputs": [
        {
          "internalType": "uint256",
          "name": "",
          "type": "uint256"
        }
      ],
      "stateMutability": "view",
      "type": "function",
      "constant": true
    },
    {
      "inputs": [],
      "name": "tokensSold",
      "outputs": [
        {
          "internalType": "uint256",
          "name": "",
          "type": "uint256"
        }
      ],
      "stateMutability": "view",
      "type": "function",
      "constant": true
    },
    {
      "inputs": [
        {
          "internalType": "uint256",
          "name": "_numberOfTokens",
          "type": "uint256"
        }
      ],
      "name": "buyTokens",
      "outputs": [],
      "stateMutability": "payable",
      "type": "function",
      "payable": true
    }
  ],
  "bytecode": "0x6080604052600660045534801561001557600080fd5b506040516108a63803806108a683398181016040528101906100379190610171565b336000806101000a81548173ffffffffffffffffffffffffffffffffffffffff021916908373ffffffffffffffffffffffffffffffffffffffff16021790555081600160006101000a81548173ffffffffffffffffffffffffffffffffffffffff021916908373ffffffffffffffffffffffffffffffffffffffff1602179055508060028190555050506101b1565b600080fd5b600073ffffffffffffffffffffffffffffffffffffffff82169050919050565b60006100f6826100cb565b9050919050565b6000610108826100eb565b9050919050565b610118816100fd565b811461012357600080fd5b50565b6000815190506101358161010f565b92915050565b6000819050919050565b61014e8161013b565b811461015957600080fd5b50565b60008151905061016b81610145565b92915050565b60008060408385031215610188576101876100c6565b5b600061019685828601610126565b92505060206101a78582860161015c565b9150509250929050565b6106e6806101c06000396000f3fe6080604052600436106100555760003560e01c80633610724e1461005a578063518ab2a81461007657806355a373d6146100a15780636042b798146100cc5780637ff9b596146100f7578063f851a44014610122575b600080fd5b610074600480360381019061006f9190610367565b61014d565b005b34801561008257600080fd5b5061008b6102d0565b60405161009891906103a3565b60405180910390f35b3480156100ad57600080fd5b506100b66102d6565b6040516100c3919061043d565b60405180910390f35b3480156100d857600080fd5b506100e16102fc565b6040516100ee91906103a3565b60405180910390f35b34801561010357600080fd5b5061010c610302565b60405161011991906103a3565b60405180910390f35b34801561012e57600080fd5b50610137610308565b6040516101449190610479565b60405180910390f35b6002548161015b91906104c3565b341461019c576040517f08c379a000000000000000000000000000000000000000000000000000000000815260040161019390610562565b60405180910390fd5b600160009054906101000a900473ffffffffffffffffffffffffffffffffffffffff1673ffffffffffffffffffffffffffffffffffffffff1663a9059cbb33836040518363ffffffff1660e01b81526004016101f9929190610582565b6020604051808303816000875af1158015610218573d6000803e3d6000fd5b505050506040513d601f19601f8201168201806040525081019061023c91906105e3565b61027b576040517f08c379a00000000000000000000000000000000000000000000000000000000081526004016102729061065c565b60405180910390fd5b806003600082825461028d919061067c565b925050819055507f5e5e995ce3133561afceaa51a9a154d5db228cd7525d34df5185582c18d3df0933826040516102c5929190610582565b60405180910390a150565b60035481565b600160009054906101000a900473ffffffffffffffffffffffffffffffffffffffff1681565b60045481565b60025481565b60008054906101000a900473ffffffffffffffffffffffffffffffffffffffff1681565b600080fd5b6000819050919050565b61034481610331565b811461034f57600080fd5b50565b6000813590506103618161033b565b92915050565b60006020828403121561037d5761037c61032c565b5b600061038b84828501610352565b91505092915050565b61039d81610331565b82525050565b60006020820190506103b86000830184610394565b92915050565b600073ffffffffffffffffffffffffffffffffffffffff82169050919050565b6000819050919050565b60006104036103fe6103f9846103be565b6103de565b6103be565b9050919050565b6000610415826103e8565b9050919050565b60006104278261040a565b9050919050565b6104378161041c565b82525050565b6000602082019050610452600083018461042e565b92915050565b6000610463826103be565b9050919050565b61047381610458565b82525050565b600060208201905061048e600083018461046a565b92915050565b7f4e487b7100000000000000000000000000000000000000000000000000000000600052601160045260246000fd5b60006104ce82610331565b91506104d983610331565b92508282026104e781610331565b915082820484148315176104fe576104fd610494565b5b5092915050565b600082825260208201905092915050565b7f76616c7565206973206e6f7420657175616c20746f20746f6b656e7300000000600082015250565b600061054c601c83610505565b915061055782610516565b602082019050919050565b6000602082019050818103600083015261057b8161053f565b9050919050565b6000604082019050610597600083018561046a565b6105a46020830184610394565b9392505050565b60008115159050919050565b6105c0816105ab565b81146105cb57600080fd5b50565b6000815190506105dd816105b7565b92915050565b6000602082840312156105f9576105f861032c565b5b6000610607848285016105ce565b91505092915050565b7f746f6b656e207472616e7366657220686173206661696c656400000000000000600082015250565b6000610646601983610505565b915061065182610610565b602082019050919050565b6000602082019050818103600083015261067581610639565b9050919050565b600061068782610331565b915061069283610331565b92508282019050808211156106aa576106a9610494565b5b9291505056fea2646970667358221220079f3b10d3fed961322c2954a38922d1580c56b4d807a002b048028cdf31667f64736f6c63430008120033",
  "immutableReferences": {},
  "source": "// SPDX-License-Identifier: GPL-3.0\r\npragma solidity ^0.8;\r\n\r\nimport \"./DappToken.sol\";\r\n\r\ncontract DappTokenSale {\r\n    address public admin;\r\n    DappToken public tokenContract;\r\n    uint256 public tokenPrice;\r\n    uint256 public tokensSold;\r\n    uint public testi = 6;\r\n\r\n    event Sell(address _buyer, uint256 _amount);\r\n\r\n    constructor(DappToken _tokenContract, uint256 _tokenPrice) {\r\n        admin = msg.sender;\r\n        tokenContract = _tokenContract;\r\n        tokenPrice = _tokenPrice;\r\n    }\r\n\r\n    function buyTokens(uint256 _numberOfTokens) public payable {\r\n        require(\r\n            msg.value == _numberOfTokens * tokenPrice,\r\n            \"value is not equal to tokens\"\r\n        );\r\n        // require(\r\n        //     tokenContract.balanceOf(address(this)) >= _numberOfTokens,\r\n        //     \"tokens aren't enough for this operation\"\r\n        // );\r\n        require(\r\n            tokenContract.transfer(msg.sender, _numberOfTokens),\r\n            \"token transfer has failed\"\r\n        );\r\n        tokensSold += _numberOfTokens;\r\n        emit Sell(msg.sender, _numberOfTokens);\r\n    }\r\n}\r\n",
  "sourcePath": "D:\\Academique\\Coding\\Solidity\\DAPP-Token\\token_sale\\contracts\\DappTokenSale.sol",
  "compiler": {
    "name": "solc",
    "version": "0.8.18+commit.87f61d96.Emscripten.clang"
  },
  "schemaVersion": "3.4.12",
  "updatedAt": "2023-03-29T17:10:08.267Z",
  "networkType": "ethereum",
  "devdoc": {
    "kind": "dev",
    "methods": {},
    "version": 1
  },
  "userdoc": {
    "kind": "user",
    "methods": {},
    "version": 1
  }
}