{
  "contractName": "DappToken",
  "abi": [
    {
      "inputs": [],
      "stateMutability": "nonpayable",
      "type": "constructor"
    },
    {
      "inputs": [],
      "name": "totalSupply",
      "outputs": [
        {
          "internalType": "uint256",
          "name": "",
          "type": "uint256"
        }
      ],
      "stateMutability": "view",
      "type": "function",
      "constant": true
    }
  ],
  "bytecode": "0x608060405234801561001057600080fd5b50620186a060008190555060b3806100296000396000f3fe6080604052348015600f57600080fd5b506004361060285760003560e01c806318160ddd14602d575b600080fd5b60336047565b604051603e91906064565b60405180910390f35b60005481565b6000819050919050565b605e81604d565b82525050565b6000602082019050607760008301846057565b9291505056fea2646970667358221220a9f8f18f8d420a5931289fec6316714d4c2c072547813d77d8b30ae8700b010664736f6c63430008120033",
  "immutableReferences": {},
  "source": "//SPDX-License-Identifier: GPL-3.0\r\npragma solidity ^0.8;\r\n\r\ncontract DappToken {\r\n    uint256 public totalSupply;\r\n\r\n    constructor() {\r\n        totalSupply = 100000;\r\n    }\r\n}\r\n",
  "sourcePath": "D:\\Academique\\Coding\\Solidity\\DAPP-Token\\contracts\\DappToken.sol",
  "compiler": {
    "name": "solc",
    "version": "0.8.18+commit.87f61d96.Emscripten.clang"
  },
  "schemaVersion": "3.4.12",
  "updatedAt": "2023-03-24T12:39:58.138Z",
  "networkType": "ethereum",
  "devdoc": {
    "kind": "dev",
    "methods": {},
    "version": 1
  },
  "userdoc": {
    "kind": "user",
    "methods": {},
    "version": 1
  }
}